{
  "contractName": "Buyers",
  "abi": [
    {
      "constant": true,
      "inputs": [],
      "name": "buyerCount",
      "outputs": [
        {
          "name": "",
          "type": "uint256"
        }
      ],
      "payable": false,
      "stateMutability": "view",
      "type": "function",
      "signature": "0x9e0cea05"
    },
    {
      "constant": true,
      "inputs": [
        {
          "name": "",
          "type": "uint256"
        },
        {
          "name": "",
          "type": "uint256"
        }
      ],
      "name": "orderList",
      "outputs": [
        {
          "name": "pid",
          "type": "uint256"
        },
        {
          "name": "bid",
          "type": "uint256"
        },
        {
          "name": "price",
          "type": "uint256"
        },
        {
          "name": "name",
          "type": "string"
        },
        {
          "name": "qnt",
          "type": "uint256"
        },
        {
          "name": "sellerAddress",
          "type": "address"
        }
      ],
      "payable": false,
      "stateMutability": "view",
      "type": "function",
      "signature": "0xc1ec95c0"
    },
    {
      "constant": true,
      "inputs": [
        {
          "name": "",
          "type": "uint256"
        }
      ],
      "name": "buyers",
      "outputs": [
        {
          "name": "bid",
          "type": "uint256"
        },
        {
          "name": "name",
          "type": "string"
        },
        {
          "name": "buyerAddress",
          "type": "address"
        }
      ],
      "payable": false,
      "stateMutability": "view",
      "type": "function",
      "signature": "0xf2aa8218"
    },
    {
      "anonymous": false,
      "inputs": [
        {
          "indexed": false,
          "name": "bid",
          "type": "uint256"
        },
        {
          "indexed": false,
          "name": "name",
          "type": "string"
        },
        {
          "indexed": false,
          "name": "buyerAddress",
          "type": "address"
        }
      ],
      "name": "BuyerAdded",
      "type": "event",
      "signature": "0x383c5f5b4ba5a7ae5e295774badebd1a944483311f52b0a7d62c13b75492f1b0"
    },
    {
      "anonymous": false,
      "inputs": [
        {
          "indexed": false,
          "name": "bid",
          "type": "uint256"
        },
        {
          "indexed": false,
          "name": "pid",
          "type": "uint256"
        },
        {
          "indexed": false,
          "name": "qnt",
          "type": "uint256"
        },
        {
          "indexed": false,
          "name": "price",
          "type": "uint256"
        },
        {
          "indexed": false,
          "name": "sellerAddress",
          "type": "address"
        },
        {
          "indexed": false,
          "name": "prodName",
          "type": "string"
        }
      ],
      "name": "ProductBought",
      "type": "event",
      "signature": "0x566542327594e73f297348f723fdf387dbfbe486ceb4e16c25a67adb70a5351a"
    },
    {
      "constant": true,
      "inputs": [],
      "name": "_isOldBuyer",
      "outputs": [
        {
          "name": "",
          "type": "bool"
        }
      ],
      "payable": false,
      "stateMutability": "view",
      "type": "function",
      "signature": "0x28644748"
    },
    {
      "constant": false,
      "inputs": [
        {
          "name": "_name",
          "type": "string"
        }
      ],
      "name": "addBuyer",
      "outputs": [],
      "payable": false,
      "stateMutability": "nonpayable",
      "type": "function",
      "signature": "0x28ee44cf"
    },
    {
      "constant": true,
      "inputs": [
        {
          "name": "index",
          "type": "uint256"
        }
      ],
      "name": "getOrderList",
      "outputs": [
        {
          "components": [
            {
              "name": "pid",
              "type": "uint256"
            },
            {
              "name": "bid",
              "type": "uint256"
            },
            {
              "name": "price",
              "type": "uint256"
            },
            {
              "name": "name",
              "type": "string"
            },
            {
              "name": "qnt",
              "type": "uint256"
            },
            {
              "name": "sellerAddress",
              "type": "address"
            }
          ],
          "name": "",
          "type": "tuple[]"
        }
      ],
      "payable": false,
      "stateMutability": "view",
      "type": "function",
      "signature": "0x5c79347f"
    },
    {
      "constant": true,
      "inputs": [
        {
          "name": "buyerAddress",
          "type": "address"
        }
      ],
      "name": "_getBuyerId",
      "outputs": [
        {
          "name": "",
          "type": "uint256"
        }
      ],
      "payable": false,
      "stateMutability": "view",
      "type": "function",
      "signature": "0x09925091"
    },
    {
      "constant": false,
      "inputs": [
        {
          "name": "_pid",
          "type": "uint256"
        },
        {
          "name": "_price",
          "type": "uint256"
        },
        {
          "name": "_name",
          "type": "string"
        },
        {
          "name": "_qnt",
          "type": "uint256"
        },
        {
          "name": "sellerAdd",
          "type": "address"
        }
      ],
      "name": "addOrder",
      "outputs": [],
      "payable": false,
      "stateMutability": "nonpayable",
      "type": "function",
      "signature": "0x84dec28a"
    },
    {
      "constant": true,
      "inputs": [
        {
          "name": "_bid",
          "type": "uint256"
        }
      ],
      "name": "getBuyerOrders",
      "outputs": [
        {
          "components": [
            {
              "name": "pid",
              "type": "uint256"
            },
            {
              "name": "bid",
              "type": "uint256"
            },
            {
              "name": "price",
              "type": "uint256"
            },
            {
              "name": "name",
              "type": "string"
            },
            {
              "name": "qnt",
              "type": "uint256"
            },
            {
              "name": "sellerAddress",
              "type": "address"
            }
          ],
          "name": "",
          "type": "tuple[]"
        }
      ],
      "payable": false,
      "stateMutability": "view",
      "type": "function",
      "signature": "0xc6956b7d"
    },
    {
      "constant": true,
      "inputs": [],
      "name": "getSellerOrders",
      "outputs": [
        {
          "components": [
            {
              "name": "pid",
              "type": "uint256"
            },
            {
              "name": "bid",
              "type": "uint256"
            },
            {
              "name": "price",
              "type": "uint256"
            },
            {
              "name": "name",
              "type": "string"
            },
            {
              "name": "qnt",
              "type": "uint256"
            },
            {
              "name": "sellerAddress",
              "type": "address"
            }
          ],
          "name": "",
          "type": "tuple[]"
        }
      ],
      "payable": false,
      "stateMutability": "view",
      "type": "function",
      "signature": "0x700db752"
    }
  ],
  "bytecode": "0x60806040526000805534801561001457600080fd5b50611835806100246000396000f3fe6080604052600436106100a4576000357c0100000000000000000000000000000000000000000000000000000000900463ffffffff16806309925091146100a957806328644748146100e657806328ee44cf146101115780635c79347f1461013a578063700db7521461017757806384dec28a146101a25780639e0cea05146101cb578063c1ec95c0146101f6578063c6956b7d14610238578063f2aa821814610275575b600080fd5b3480156100b557600080fd5b506100d060048036036100cb919081019061120e565b6102b4565b6040516100dd9190611557565b60405180910390f35b3480156100f257600080fd5b506100fb61037b565b604051610108919061153c565b60405180910390f35b34801561011d57600080fd5b5061013860048036036101339190810190611237565b610424565b005b34801561014657600080fd5b50610161600480360361015c9190810190611278565b61055b565b60405161016e919061151a565b60405180910390f35b34801561018357600080fd5b5061018c6106ee565b604051610199919061151a565b60405180910390f35b3480156101ae57600080fd5b506101c960048036036101c491908101906112dd565b610bca565b005b3480156101d757600080fd5b506101e0610cf0565b6040516101ed9190611557565b60405180910390f35b34801561020257600080fd5b5061021d600480360361021891908101906112a1565b610cf6565b60405161022f969594939291906115ee565b60405180910390f35b34801561024457600080fd5b5061025f600480360361025a9190810190611278565b610e06565b60405161026c919061151a565b60405180910390f35b34801561028157600080fd5b5061029c60048036036102979190810190611278565b610f99565b6040516102ab939291906115b0565b60405180910390f35b600080600090505b600054811015610370578273ffffffffffffffffffffffffffffffffffffffff166001828154811015156102ec57fe5b906000526020600020906003020160020160009054906101000a900473ffffffffffffffffffffffffffffffffffffffff1673ffffffffffffffffffffffffffffffffffffffff1614156103635760018181548110151561034957fe5b906000526020600020906003020160000154915050610376565b80806001019150506102bc565b50600090505b919050565b600080600090505b60018054905081101561041b5760018181548110151561039f57fe5b906000526020600020906003020160020160009054906101000a900473ffffffffffffffffffffffffffffffffffffffff1673ffffffffffffffffffffffffffffffffffffffff163373ffffffffffffffffffffffffffffffffffffffff16141561040e576001915050610421565b8080600101915050610383565b50600090505b90565b61042c61037b565b15151561043857600080fd5b6000808154809291906001019190505550600160606040519081016040528060005481526020018381526020013373ffffffffffffffffffffffffffffffffffffffff16815250908060018154018082558091505090600182039060005260206000209060030201600090919290919091506000820151816000015560208201518160010190805190602001906104d092919061108a565b5060408201518160020160006101000a81548173ffffffffffffffffffffffffffffffffffffffff021916908373ffffffffffffffffffffffffffffffffffffffff1602179055505050507f383c5f5b4ba5a7ae5e295774badebd1a944483311f52b0a7d62c13b75492f1b0600054823360405161055093929190611572565b60405180910390a150565b606060026000838152602001908152602001600020805480602002602001604051908101604052809291908181526020016000905b828210156106e3578382906000526020600020906006020160c06040519081016040529081600082015481526020016001820154815260200160028201548152602001600382018054600181600116156101000203166002900480601f01602080910402602001604051908101604052809291908181526020018280546001816001161561010002031660029004801561066b5780601f106106405761010080835404028352916020019161066b565b820191906000526020600020905b81548152906001019060200180831161064e57829003601f168201915b50505050508152602001600482015481526020016005820160009054906101000a900473ffffffffffffffffffffffffffffffffffffffff1673ffffffffffffffffffffffffffffffffffffffff1673ffffffffffffffffffffffffffffffffffffffff168152505081526020019060010190610590565b505050509050919050565b606060008090506000600190505b6000548111151561091857606060026000838152602001908152602001600020805480602002602001604051908101604052809291908181526020016000905b8282101561088f578382906000526020600020906006020160c06040519081016040529081600082015481526020016001820154815260200160028201548152602001600382018054600181600116156101000203166002900480601f0160208091040260200160405190810160405280929190818152602001828054600181600116156101000203166002900480156108175780601f106107ec57610100808354040283529160200191610817565b820191906000526020600020905b8154815290600101906020018083116107fa57829003601f168201915b50505050508152602001600482015481526020016005820160009054906101000a900473ffffffffffffffffffffffffffffffffffffffff1673ffffffffffffffffffffffffffffffffffffffff1673ffffffffffffffffffffffffffffffffffffffff16815250508152602001906001019061073c565b50505050905060008090505b8151811015610909573373ffffffffffffffffffffffffffffffffffffffff1682828151811015156108c957fe5b9060200190602002015160a0015173ffffffffffffffffffffffffffffffffffffffff1614156108fc5783806001019450505b808060010191505061089b565b505080806001019150506106fc565b5060608160405190808252806020026020018201604052801561095557816020015b61094261110a565b81526020019060019003908161093a5790505b50905060008090506000600190505b60005481111515610bc057606060026000838152602001908152602001600020805480602002602001604051908101604052809291908181526020016000905b82821015610af7578382906000526020600020906006020160c06040519081016040529081600082015481526020016001820154815260200160028201548152602001600382018054600181600116156101000203166002900480601f016020809104026020016040519081016040528092919081815260200182805460018160011615610100020316600290048015610a7f5780601f10610a5457610100808354040283529160200191610a7f565b820191906000526020600020905b815481529060010190602001808311610a6257829003601f168201915b50505050508152602001600482015481526020016005820160009054906101000a900473ffffffffffffffffffffffffffffffffffffffff1673ffffffffffffffffffffffffffffffffffffffff1673ffffffffffffffffffffffffffffffffffffffff1681525050815260200190600101906109a4565b50505050905060008090505b8151811015610bb1573373ffffffffffffffffffffffffffffffffffffffff168282815181101515610b3157fe5b9060200190602002015160a0015173ffffffffffffffffffffffffffffffffffffffff161415610ba4578181815181101515610b6957fe5b906020019060200201518585815181101515610b8157fe5b90602001906020020181905250838060010194505085841415610ba357610bb1565b5b8080600101915050610b03565b50508080600101915050610964565b5081935050505090565b6000610bd5336102b4565b90506002600082815260200190815260200160002060c0604051908101604052808881526020018381526020018781526020018681526020018581526020018473ffffffffffffffffffffffffffffffffffffffff16815250908060018154018082558091505090600182039060005260206000209060060201600090919290919091506000820151816000015560208201518160010155604082015181600201556060820151816003019080519060200190610c9392919061108a565b506080820151816004015560a08201518160050160006101000a81548173ffffffffffffffffffffffffffffffffffffffff021916908373ffffffffffffffffffffffffffffffffffffffff160217905550505050505050505050565b60005481565b600260205281600052604060002081815481101515610d1157fe5b906000526020600020906006020160009150915050806000015490806001015490806002015490806003018054600181600116156101000203166002900480601f016020809104026020016040519081016040528092919081815260200182805460018160011615610100020316600290048015610dd05780601f10610da557610100808354040283529160200191610dd0565b820191906000526020600020905b815481529060010190602001808311610db357829003601f168201915b5050505050908060040154908060050160009054906101000a900473ffffffffffffffffffffffffffffffffffffffff16905086565b606060026000838152602001908152602001600020805480602002602001604051908101604052809291908181526020016000905b82821015610f8e578382906000526020600020906006020160c06040519081016040529081600082015481526020016001820154815260200160028201548152602001600382018054600181600116156101000203166002900480601f016020809104026020016040519081016040528092919081815260200182805460018160011615610100020316600290048015610f165780601f10610eeb57610100808354040283529160200191610f16565b820191906000526020600020905b815481529060010190602001808311610ef957829003601f168201915b50505050508152602001600482015481526020016005820160009054906101000a900473ffffffffffffffffffffffffffffffffffffffff1673ffffffffffffffffffffffffffffffffffffffff1673ffffffffffffffffffffffffffffffffffffffff168152505081526020019060010190610e3b565b505050509050919050565b600181815481101515610fa857fe5b9060005260206000209060030201600091509050806000015490806001018054600181600116156101000203166002900480601f01602080910402602001604051908101604052809291908181526020018280546001816001161561010002031660029004801561105a5780601f1061102f5761010080835404028352916020019161105a565b820191906000526020600020905b81548152906001019060200180831161103d57829003601f168201915b5050505050908060020160009054906101000a900473ffffffffffffffffffffffffffffffffffffffff16905083565b828054600181600116156101000203166002900490600052602060002090601f016020900481019282601f106110cb57805160ff19168380011785556110f9565b828001600101855582156110f9579182015b828111156110f85782518255916020019190600101906110dd565b5b5090506111069190611157565b5090565b60c0604051908101604052806000815260200160008152602001600081526020016060815260200160008152602001600073ffffffffffffffffffffffffffffffffffffffff1681525090565b61117991905b8082111561117557600081600090555060010161115d565b5090565b90565b60006111888235611744565b905092915050565b600061119c8235611756565b905092915050565b600082601f83011215156111b757600080fd5b81356111ca6111c582611683565b611656565b915080825260208301602083018583830111156111e657600080fd5b6111f18382846117a8565b50505092915050565b60006112068235611768565b905092915050565b60006020828403121561122057600080fd5b600061122e8482850161117c565b91505092915050565b60006020828403121561124957600080fd5b600082013567ffffffffffffffff81111561126357600080fd5b61126f848285016111a4565b91505092915050565b60006020828403121561128a57600080fd5b6000611298848285016111fa565b91505092915050565b600080604083850312156112b457600080fd5b60006112c2858286016111fa565b92505060206112d3858286016111fa565b9150509250929050565b600080600080600060a086880312156112f557600080fd5b6000611303888289016111fa565b9550506020611314888289016111fa565b945050604086013567ffffffffffffffff81111561133157600080fd5b61133d888289016111a4565b935050606061134e888289016111fa565b925050608061135f88828901611190565b9150509295509295909350565b61137581611772565b82525050565b611384816116fc565b82525050565b611393816116ea565b82525050565b60006113a4826116bc565b808452602084019350836020820285016113bd856116af565b60005b848110156113f65783830388526113d8838351611482565b92506113e3826116dd565b91506020880197506001810190506113c0565b508196508694505050505092915050565b6114108161170e565b82525050565b6000611421826116d2565b8084526114358160208601602086016117b7565b61143e816117ea565b602085010191505092915050565b6000611457826116c7565b80845261146b8160208601602086016117b7565b611474816117ea565b602085010191505092915050565b600060c08301600083015161149a600086018261150b565b5060208301516114ad602086018261150b565b5060408301516114c0604086018261150b565b50606083015184820360608601526114d8828261144c565b91505060808301516114ed608086018261150b565b5060a083015161150060a086018261137b565b508091505092915050565b6115148161173a565b82525050565b600060208201905081810360008301526115348184611399565b905092915050565b60006020820190506115516000830184611407565b92915050565b600060208201905061156c600083018461150b565b92915050565b6000606082019050611587600083018661150b565b81810360208301526115998185611416565b90506115a8604083018461136c565b949350505050565b60006060820190506115c5600083018661150b565b81810360208301526115d7818561144c565b90506115e6604083018461138a565b949350505050565b600060c082019050611603600083018961150b565b611610602083018861150b565b61161d604083018761150b565b818103606083015261162f818661144c565b905061163e608083018561150b565b61164b60a083018461137b565b979650505050505050565b6000604051905081810181811067ffffffffffffffff8211171561167957600080fd5b8060405250919050565b600067ffffffffffffffff82111561169a57600080fd5b601f19601f8301169050602081019050919050565b6000602082019050919050565b600081519050919050565b600081519050919050565b600081519050919050565b6000602082019050919050565b60006116f58261171a565b9050919050565b60006117078261171a565b9050919050565b60008115159050919050565b600073ffffffffffffffffffffffffffffffffffffffff82169050919050565b6000819050919050565b600061174f8261171a565b9050919050565b60006117618261171a565b9050919050565b6000819050919050565b600061177d82611784565b9050919050565b600061178f82611796565b9050919050565b60006117a18261171a565b9050919050565b82818337600083830152505050565b60005b838110156117d55780820151818401526020810190506117ba565b838111156117e4576000848401525b50505050565b6000601f19601f830116905091905056fea265627a7a723058203f9a69550eee1182635cf174846c1920094136cdb17e9631a53cc1493fa40db66c6578706572696d656e74616cf50037",
  "source": "// SPDX-License-Identifier: MIT\r\npragma solidity >=0.4.22 <0.9.0;\r\npragma experimental ABIEncoderV2;\r\n\r\ncontract Buyers{\r\n  \r\n    uint public buyerCount = 0 ;\r\n\r\n    struct Buyer{\r\n        uint bid;\r\n        string name;\r\n        address buyerAddress;\r\n    }\r\n\r\n    struct Order{\r\n        uint pid;\r\n        uint bid;\r\n        uint price;\r\n        string name;\r\n        uint qnt;\r\n        address payable sellerAddress;\r\n    }\r\n\r\n    Buyer[] public buyers;\r\n\r\n    mapping(uint => Order[]) public orderList;\r\n\r\n    event BuyerAdded(uint bid, string name , address buyerAddress);\r\n    event ProductBought(uint bid, uint pid,uint qnt, uint price, address sellerAddress, string prodName);\r\n\r\n    function _isOldBuyer() public view returns(bool){\r\n        for(uint i = 0; i<buyers.length ; i++){\r\n            if(msg.sender == buyers[i].buyerAddress)  return true;\r\n        }\r\n        return false;\r\n    }\r\n\r\n    modifier onlyNewBuyer() {\r\n        require(!_isOldBuyer());\r\n        _;\r\n    }\r\n\r\n    modifier onlyBuyer() {\r\n        require(_isOldBuyer());\r\n        _;\r\n    }\r\n\r\n    function addBuyer(string memory _name) public onlyNewBuyer {\r\n        buyerCount++;\r\n        buyers.push(Buyer(buyerCount,_name, msg.sender));\r\n        emit BuyerAdded(buyerCount, _name,msg.sender);\r\n    }\r\n\r\n    function getOrderList(uint index) public view returns (Order[] memory){\r\n        return orderList[index];\r\n    }\r\n\r\n    function _getBuyerId(address buyerAddress ) public view returns (uint){\r\n        for(uint i= 0 ;i<buyerCount ; i++){\r\n            if(buyers[i].buyerAddress == buyerAddress){\r\n                return buyers[i].bid;\r\n            }\r\n        }\r\n        return 0;\r\n    }\r\n\r\n    function addOrder(uint _pid , uint _price , string memory _name ,uint _qnt , address payable sellerAdd) public {\r\n        uint bid = _getBuyerId(msg.sender);\r\n        orderList[bid].push(Order(_pid,bid,_price,_name,_qnt,sellerAdd));\r\n    }\r\n\r\n    function getBuyerOrders(uint _bid) public view returns(Order[] memory){\r\n        return orderList[_bid];\r\n    }\r\n\r\n    function getSellerOrders() public view returns(Order[] memory){\r\n        uint orderCount = 0;\r\n        for(uint i=1 ;i <= buyerCount ; i++){\r\n            Order[] memory orders = orderList[i];\r\n            for(uint j =0 ; j< orders.length; j++){\r\n                if(orders[j].sellerAddress == msg.sender){\r\n                    orderCount++;\r\n                }\r\n            }\r\n        }\r\n        Order[] memory sellerOrders = new Order[](orderCount);\r\n        uint orderCounter=0;\r\n        for(uint i=1 ;i <= buyerCount ; i++){\r\n            Order[] memory orders = orderList[i];\r\n            for(uint j =0 ; j< orders.length; j++){\r\n                if(orders[j].sellerAddress == msg.sender){\r\n                    sellerOrders[orderCounter] = orders[j];\r\n                    orderCounter++;\r\n                    if(orderCounter == orderCount){\r\n                        break;\r\n                    }\r\n                }\r\n            }\r\n        }\r\n        return sellerOrders;\r\n    }\r\n}",
  "sourcePath": "C:\\Users\\ankit\\Desktop\\block\\commerce-app\\src\\contracts\\Buyers.sol",
  "compiler": {
    "name": "solc",
    "version": "0.5.0+commit.1d4f565a.Emscripten.clang"
  },
  "schemaVersion": "3.0.2",
  "updatedAt": "2022-03-24T20:29:01.606Z",
  "devdoc": {
    "methods": {}
  },
  "userdoc": {
    "methods": {}
  }
}