{
  "contractName": "Ecommerce",
  "abi": [
    {
      "constant": true,
      "inputs": [],
      "name": "getSellerProducts",
      "outputs": [
        {
          "components": [
            {
              "name": "pid",
              "type": "uint256"
            },
            {
              "name": "name",
              "type": "string"
            },
            {
              "name": "price",
              "type": "uint256"
            },
            {
              "name": "stock",
              "type": "uint256"
            },
            {
              "name": "sellerAddress",
              "type": "address"
            }
          ],
          "name": "",
          "type": "tuple[]"
        }
      ],
      "payable": false,
      "stateMutability": "view",
      "type": "function",
      "signature": "0x01b3490d"
    },
    {
      "constant": true,
      "inputs": [],
      "name": "getAllProducts",
      "outputs": [
        {
          "components": [
            {
              "name": "pid",
              "type": "uint256"
            },
            {
              "name": "name",
              "type": "string"
            },
            {
              "name": "price",
              "type": "uint256"
            },
            {
              "name": "stock",
              "type": "uint256"
            },
            {
              "name": "sellerAddress",
              "type": "address"
            }
          ],
          "name": "",
          "type": "tuple[]"
        }
      ],
      "payable": false,
      "stateMutability": "view",
      "type": "function",
      "signature": "0x02ee3a52"
    },
    {
      "constant": true,
      "inputs": [
        {
          "name": "buyerAddress",
          "type": "address"
        }
      ],
      "name": "_getBuyerId",
      "outputs": [
        {
          "name": "",
          "type": "uint256"
        }
      ],
      "payable": false,
      "stateMutability": "view",
      "type": "function",
      "signature": "0x09925091"
    },
    {
      "constant": true,
      "inputs": [],
      "name": "isOldSeller",
      "outputs": [
        {
          "name": "",
          "type": "bool"
        }
      ],
      "payable": false,
      "stateMutability": "view",
      "type": "function",
      "signature": "0x1cefae5b"
    },
    {
      "constant": true,
      "inputs": [],
      "name": "_isOldBuyer",
      "outputs": [
        {
          "name": "",
          "type": "bool"
        }
      ],
      "payable": false,
      "stateMutability": "view",
      "type": "function",
      "signature": "0x28644748"
    },
    {
      "constant": false,
      "inputs": [
        {
          "name": "_name",
          "type": "string"
        }
      ],
      "name": "addBuyer",
      "outputs": [],
      "payable": false,
      "stateMutability": "nonpayable",
      "type": "function",
      "signature": "0x28ee44cf"
    },
    {
      "constant": true,
      "inputs": [
        {
          "name": "index",
          "type": "uint256"
        }
      ],
      "name": "getOrderList",
      "outputs": [
        {
          "components": [
            {
              "name": "pid",
              "type": "uint256"
            },
            {
              "name": "bid",
              "type": "uint256"
            },
            {
              "name": "price",
              "type": "uint256"
            },
            {
              "name": "name",
              "type": "string"
            },
            {
              "name": "qnt",
              "type": "uint256"
            },
            {
              "name": "sellerAddress",
              "type": "address"
            }
          ],
          "name": "",
          "type": "tuple[]"
        }
      ],
      "payable": false,
      "stateMutability": "view",
      "type": "function",
      "signature": "0x5c79347f"
    },
    {
      "constant": true,
      "inputs": [
        {
          "name": "pid",
          "type": "uint256"
        }
      ],
      "name": "getName",
      "outputs": [
        {
          "name": "",
          "type": "string"
        }
      ],
      "payable": false,
      "stateMutability": "view",
      "type": "function",
      "signature": "0x6b8ff574"
    },
    {
      "constant": true,
      "inputs": [],
      "name": "getSellerOrders",
      "outputs": [
        {
          "components": [
            {
              "name": "pid",
              "type": "uint256"
            },
            {
              "name": "bid",
              "type": "uint256"
            },
            {
              "name": "price",
              "type": "uint256"
            },
            {
              "name": "name",
              "type": "string"
            },
            {
              "name": "qnt",
              "type": "uint256"
            },
            {
              "name": "sellerAddress",
              "type": "address"
            }
          ],
          "name": "",
          "type": "tuple[]"
        }
      ],
      "payable": false,
      "stateMutability": "view",
      "type": "function",
      "signature": "0x700db752"
    },
    {
      "constant": true,
      "inputs": [
        {
          "name": "",
          "type": "uint256"
        }
      ],
      "name": "products",
      "outputs": [
        {
          "name": "pid",
          "type": "uint256"
        },
        {
          "name": "name",
          "type": "string"
        },
        {
          "name": "price",
          "type": "uint256"
        },
        {
          "name": "stock",
          "type": "uint256"
        },
        {
          "name": "sellerAddress",
          "type": "address"
        }
      ],
      "payable": false,
      "stateMutability": "view",
      "type": "function",
      "signature": "0x7acc0b20"
    },
    {
      "constant": false,
      "inputs": [
        {
          "name": "_pid",
          "type": "uint256"
        },
        {
          "name": "_price",
          "type": "uint256"
        },
        {
          "name": "_name",
          "type": "string"
        },
        {
          "name": "_qnt",
          "type": "uint256"
        },
        {
          "name": "sellerAdd",
          "type": "address"
        }
      ],
      "name": "addOrder",
      "outputs": [],
      "payable": false,
      "stateMutability": "nonpayable",
      "type": "function",
      "signature": "0x84dec28a"
    },
    {
      "constant": false,
      "inputs": [
        {
          "name": "pid",
          "type": "uint256"
        },
        {
          "name": "qnt",
          "type": "uint256"
        }
      ],
      "name": "updateStock",
      "outputs": [],
      "payable": false,
      "stateMutability": "nonpayable",
      "type": "function",
      "signature": "0x9dfc3dd1"
    },
    {
      "constant": true,
      "inputs": [],
      "name": "buyerCount",
      "outputs": [
        {
          "name": "",
          "type": "uint256"
        }
      ],
      "payable": false,
      "stateMutability": "view",
      "type": "function",
      "signature": "0x9e0cea05"
    },
    {
      "constant": true,
      "inputs": [
        {
          "name": "pid",
          "type": "uint256"
        }
      ],
      "name": "getSellerAddress",
      "outputs": [
        {
          "name": "",
          "type": "address"
        }
      ],
      "payable": false,
      "stateMutability": "view",
      "type": "function",
      "signature": "0xa675364d"
    },
    {
      "constant": true,
      "inputs": [
        {
          "name": "",
          "type": "address"
        }
      ],
      "name": "SellerProductCount",
      "outputs": [
        {
          "name": "",
          "type": "uint256"
        }
      ],
      "payable": false,
      "stateMutability": "view",
      "type": "function",
      "signature": "0xabf2ec94"
    },
    {
      "constant": true,
      "inputs": [
        {
          "name": "index",
          "type": "uint256"
        }
      ],
      "name": "getProduct",
      "outputs": [
        {
          "components": [
            {
              "name": "pid",
              "type": "uint256"
            },
            {
              "name": "name",
              "type": "string"
            },
            {
              "name": "price",
              "type": "uint256"
            },
            {
              "name": "stock",
              "type": "uint256"
            },
            {
              "name": "sellerAddress",
              "type": "address"
            }
          ],
          "name": "",
          "type": "tuple"
        }
      ],
      "payable": false,
      "stateMutability": "view",
      "type": "function",
      "signature": "0xb9db15b4"
    },
    {
      "constant": true,
      "inputs": [
        {
          "name": "",
          "type": "uint256"
        },
        {
          "name": "",
          "type": "uint256"
        }
      ],
      "name": "orderList",
      "outputs": [
        {
          "name": "pid",
          "type": "uint256"
        },
        {
          "name": "bid",
          "type": "uint256"
        },
        {
          "name": "price",
          "type": "uint256"
        },
        {
          "name": "name",
          "type": "string"
        },
        {
          "name": "qnt",
          "type": "uint256"
        },
        {
          "name": "sellerAddress",
          "type": "address"
        }
      ],
      "payable": false,
      "stateMutability": "view",
      "type": "function",
      "signature": "0xc1ec95c0"
    },
    {
      "constant": true,
      "inputs": [
        {
          "name": "_bid",
          "type": "uint256"
        }
      ],
      "name": "getBuyerOrders",
      "outputs": [
        {
          "components": [
            {
              "name": "pid",
              "type": "uint256"
            },
            {
              "name": "bid",
              "type": "uint256"
            },
            {
              "name": "price",
              "type": "uint256"
            },
            {
              "name": "name",
              "type": "string"
            },
            {
              "name": "qnt",
              "type": "uint256"
            },
            {
              "name": "sellerAddress",
              "type": "address"
            }
          ],
          "name": "",
          "type": "tuple[]"
        }
      ],
      "payable": false,
      "stateMutability": "view",
      "type": "function",
      "signature": "0xc6956b7d"
    },
    {
      "constant": true,
      "inputs": [
        {
          "name": "",
          "type": "uint256"
        }
      ],
      "name": "sellers",
      "outputs": [
        {
          "name": "name",
          "type": "string"
        },
        {
          "name": "sellerAddress",
          "type": "address"
        }
      ],
      "payable": false,
      "stateMutability": "view",
      "type": "function",
      "signature": "0xcee26ed5"
    },
    {
      "constant": true,
      "inputs": [],
      "name": "getSeller",
      "outputs": [
        {
          "components": [
            {
              "name": "name",
              "type": "string"
            },
            {
              "name": "sellerAddress",
              "type": "address"
            }
          ],
          "name": "",
          "type": "tuple"
        }
      ],
      "payable": false,
      "stateMutability": "view",
      "type": "function",
      "signature": "0xdbd0e1b6"
    },
    {
      "constant": true,
      "inputs": [],
      "name": "productCount",
      "outputs": [
        {
          "name": "",
          "type": "uint256"
        }
      ],
      "payable": false,
      "stateMutability": "view",
      "type": "function",
      "signature": "0xe0f6ef87"
    },
    {
      "constant": false,
      "inputs": [
        {
          "name": "val",
          "type": "uint256"
        }
      ],
      "name": "setProd",
      "outputs": [],
      "payable": false,
      "stateMutability": "nonpayable",
      "type": "function",
      "signature": "0xe104dbf9"
    },
    {
      "constant": true,
      "inputs": [
        {
          "name": "pid",
          "type": "uint256"
        }
      ],
      "name": "getPrice",
      "outputs": [
        {
          "name": "",
          "type": "uint256"
        }
      ],
      "payable": false,
      "stateMutability": "view",
      "type": "function",
      "signature": "0xe7572230"
    },
    {
      "constant": true,
      "inputs": [
        {
          "name": "",
          "type": "uint256"
        }
      ],
      "name": "buyers",
      "outputs": [
        {
          "name": "bid",
          "type": "uint256"
        },
        {
          "name": "name",
          "type": "string"
        },
        {
          "name": "buyerAddress",
          "type": "address"
        }
      ],
      "payable": false,
      "stateMutability": "view",
      "type": "function",
      "signature": "0xf2aa8218"
    },
    {
      "anonymous": false,
      "inputs": [
        {
          "indexed": false,
          "name": "bid",
          "type": "uint256"
        },
        {
          "indexed": false,
          "name": "name",
          "type": "string"
        },
        {
          "indexed": false,
          "name": "buyerAddress",
          "type": "address"
        }
      ],
      "name": "BuyerAdded",
      "type": "event",
      "signature": "0x383c5f5b4ba5a7ae5e295774badebd1a944483311f52b0a7d62c13b75492f1b0"
    },
    {
      "anonymous": false,
      "inputs": [
        {
          "indexed": false,
          "name": "bid",
          "type": "uint256"
        },
        {
          "indexed": false,
          "name": "pid",
          "type": "uint256"
        },
        {
          "indexed": false,
          "name": "qnt",
          "type": "uint256"
        },
        {
          "indexed": false,
          "name": "price",
          "type": "uint256"
        },
        {
          "indexed": false,
          "name": "sellerAddress",
          "type": "address"
        },
        {
          "indexed": false,
          "name": "prodName",
          "type": "string"
        }
      ],
      "name": "ProductBought",
      "type": "event",
      "signature": "0x566542327594e73f297348f723fdf387dbfbe486ceb4e16c25a67adb70a5351a"
    },
    {
      "anonymous": false,
      "inputs": [
        {
          "indexed": false,
          "name": "name",
          "type": "string"
        },
        {
          "indexed": false,
          "name": "sellerAddress",
          "type": "address"
        }
      ],
      "name": "SellerAdded",
      "type": "event",
      "signature": "0xf02d0e098230e46e9ca6e77cd37e8cde77c5069e445f3fc8c7f5fc95168ec374"
    },
    {
      "anonymous": false,
      "inputs": [
        {
          "indexed": false,
          "name": "pid",
          "type": "uint256"
        },
        {
          "indexed": false,
          "name": "name",
          "type": "string"
        },
        {
          "indexed": false,
          "name": "price",
          "type": "uint256"
        },
        {
          "indexed": false,
          "name": "stock",
          "type": "uint256"
        },
        {
          "indexed": false,
          "name": "sellerAddress",
          "type": "address"
        }
      ],
      "name": "ProductAdded",
      "type": "event",
      "signature": "0x3d62634187d659619c5db5d026cc9a7da427c566510a5b8cb210293bf9fd530e"
    },
    {
      "constant": false,
      "inputs": [
        {
          "name": "_name",
          "type": "string"
        }
      ],
      "name": "addSeller",
      "outputs": [],
      "payable": false,
      "stateMutability": "nonpayable",
      "type": "function",
      "signature": "0x245349d3"
    },
    {
      "constant": false,
      "inputs": [
        {
          "name": "_name",
          "type": "string"
        },
        {
          "name": "_price",
          "type": "uint256"
        },
        {
          "name": "_stock",
          "type": "uint256"
        }
      ],
      "name": "addProduct",
      "outputs": [],
      "payable": false,
      "stateMutability": "nonpayable",
      "type": "function",
      "signature": "0x125b0b34"
    },
    {
      "constant": false,
      "inputs": [
        {
          "name": "_pid",
          "type": "uint256"
        },
        {
          "name": "_qnt",
          "type": "uint256"
        }
      ],
      "name": "buyProduct",
      "outputs": [],
      "payable": true,
      "stateMutability": "payable",
      "type": "function",
      "signature": "0x53b62866"
    }
  ],
  "bytecode": "0x6080604052600060045534801561001557600080fd5b5061318b806100256000396000f3fe60806040526004361061015f576000357c0100000000000000000000000000000000000000000000000000000000900463ffffffff16806301b3490d1461016457806302ee3a521461018f57806309925091146101ba578063125b0b34146101f75780631cefae5b14610220578063245349d31461024b578063286447481461027457806328ee44cf1461029f57806353b62866146102c85780635c79347f146102e45780636b8ff57414610321578063700db7521461035e5780637acc0b201461038957806384dec28a146103ca5780639dfc3dd1146103f35780639e0cea051461041c578063a675364d14610447578063abf2ec9414610484578063b9db15b4146104c1578063c1ec95c0146104fe578063c6956b7d14610540578063cee26ed51461057d578063dbd0e1b6146105bb578063e0f6ef87146105e6578063e104dbf914610611578063e75722301461063a578063f2aa821814610677575b600080fd5b34801561017057600080fd5b506101796106b6565b6040516101869190612c69565b60405180910390f35b34801561019b57600080fd5b506101a461094e565b6040516101b19190612c69565b60405180910390f35b3480156101c657600080fd5b506101e160048036036101dc9190810190612722565b610ac4565b6040516101ee9190612d6c565b60405180910390f35b34801561020357600080fd5b5061021e6004803603610219919081019061278c565b610b8b565b005b34801561022c57600080fd5b50610235610d54565b6040516102429190612c8b565b60405180910390f35b34801561025757600080fd5b50610272600480360361026d919081019061274b565b610dfd565b005b34801561028057600080fd5b50610289610f0c565b6040516102969190612c8b565b60405180910390f35b3480156102ab57600080fd5b506102c660048036036102c1919081019061274b565b610fb5565b005b6102e260048036036102dd919081019061281c565b6110ed565b005b3480156102f057600080fd5b5061030b600480360361030691908101906127f3565b6111e8565b6040516103189190612c47565b60405180910390f35b34801561032d57600080fd5b50610348600480360361034391908101906127f3565b61137b565b6040516103559190612ca6565b60405180910390f35b34801561036a57600080fd5b5061037361143d565b6040516103809190612c47565b60405180910390f35b34801561039557600080fd5b506103b060048036036103ab91908101906127f3565b611919565b6040516103c1959493929190612e5d565b60405180910390f35b3480156103d657600080fd5b506103f160048036036103ec9190810190612858565b611a16565b005b3480156103ff57600080fd5b5061041a6004803603610415919081019061281c565b611b3c565b005b34801561042857600080fd5b50610431611b87565b60405161043e9190612d6c565b60405180910390f35b34801561045357600080fd5b5061046e600480360361046991908101906127f3565b611b8d565b60405161047b9190612c2c565b60405180910390f35b34801561049057600080fd5b506104ab60048036036104a69190810190612722565b611bd7565b6040516104b89190612d6c565b60405180910390f35b3480156104cd57600080fd5b506104e860048036036104e391908101906127f3565b611bef565b6040516104f59190612d28565b60405180910390f35b34801561050a57600080fd5b506105256004803603610520919081019061281c565b611d3d565b60405161053796959493929190612eb7565b60405180910390f35b34801561054c57600080fd5b50610567600480360361056291908101906127f3565b611e4d565b6040516105749190612c47565b60405180910390f35b34801561058957600080fd5b506105a4600480360361059f91908101906127f3565b611fe0565b6040516105b2929190612cf8565b60405180910390f35b3480156105c757600080fd5b506105d06120cb565b6040516105dd9190612d4a565b60405180910390f35b3480156105f257600080fd5b506105fb6123b7565b6040516106089190612d6c565b60405180910390f35b34801561061d57600080fd5b50610638600480360361063391908101906127f3565b6123bd565b005b34801561064657600080fd5b50610661600480360361065c91908101906127f3565b6123c7565b60405161066e9190612d6c565b60405180910390f35b34801561068357600080fd5b5061069e600480360361069991908101906127f3565b6123f1565b6040516106ad93929190612e1f565b60405180910390f35b60606000600260003373ffffffffffffffffffffffffffffffffffffffff1673ffffffffffffffffffffffffffffffffffffffff168152602001908152602001600020549050600080905060608260405190808252806020026020018201604052801561073d57816020015b61072a6124e2565b8152602001906001900390816107225790505b50905060008090505b600180549050811015610944573373ffffffffffffffffffffffffffffffffffffffff1660018281548110151561077957fe5b906000526020600020906005020160040160009054906101000a900473ffffffffffffffffffffffffffffffffffffffff1673ffffffffffffffffffffffffffffffffffffffff161415610937576001818154811015156107d657fe5b906000526020600020906005020160a0604051908101604052908160008201548152602001600182018054600181600116156101000203166002900480601f0160208091040260200160405190810160405280929190818152602001828054600181600116156101000203166002900480156108935780601f1061086857610100808354040283529160200191610893565b820191906000526020600020905b81548152906001019060200180831161087657829003601f168201915b5050505050815260200160028201548152602001600382015481526020016004820160009054906101000a900473ffffffffffffffffffffffffffffffffffffffff1673ffffffffffffffffffffffffffffffffffffffff1673ffffffffffffffffffffffffffffffffffffffff1681525050828481518110151561091457fe5b9060200190602002018190525082806001019350508284141561093657610944565b5b8080600101915050610746565b5080935050505090565b60606001805480602002602001604051908101604052809291908181526020016000905b82821015610abb578382906000526020600020906005020160a0604051908101604052908160008201548152602001600182018054600181600116156101000203166002900480601f016020809104026020016040519081016040528092919081815260200182805460018160011615610100020316600290048015610a395780601f10610a0e57610100808354040283529160200191610a39565b820191906000526020600020905b815481529060010190602001808311610a1c57829003601f168201915b5050505050815260200160028201548152602001600382015481526020016004820160009054906101000a900473ffffffffffffffffffffffffffffffffffffffff1673ffffffffffffffffffffffffffffffffffffffff1673ffffffffffffffffffffffffffffffffffffffff168152505081526020019060010190610972565b50505050905090565b600080600090505b600454811015610b80578273ffffffffffffffffffffffffffffffffffffffff16600582815481101515610afc57fe5b906000526020600020906003020160020160009054906101000a900473ffffffffffffffffffffffffffffffffffffffff1673ffffffffffffffffffffffffffffffffffffffff161415610b7357600581815481101515610b5957fe5b906000526020600020906003020160000154915050610b86565b8080600101915050610acc565b50600090505b919050565b610b93610d54565b1515610b9e57600080fd5b600081111515610bad57600080fd5b600082111515610bbc57600080fd5b6000808154809291906001019190505550600160a06040519081016040528060005481526020018581526020018481526020018381526020013373ffffffffffffffffffffffffffffffffffffffff1681525090806001815401808255809150509060018203906000526020600020906005020160009091929091909150600082015181600001556020820151816001019080519060200190610c60929190612528565b50604082015181600201556060820151816003015560808201518160040160006101000a81548173ffffffffffffffffffffffffffffffffffffffff021916908373ffffffffffffffffffffffffffffffffffffffff160217905550505050600260003373ffffffffffffffffffffffffffffffffffffffff1673ffffffffffffffffffffffffffffffffffffffff168152602001908152602001600020600081548092919060010191905055507f3d62634187d659619c5db5d026cc9a7da427c566510a5b8cb210293bf9fd530e60005484848433604051610d47959493929190612dc5565b60405180910390a1505050565b600080600090505b600380549050811015610df457600381815481101515610d7857fe5b906000526020600020906002020160010160009054906101000a900473ffffffffffffffffffffffffffffffffffffffff1673ffffffffffffffffffffffffffffffffffffffff163373ffffffffffffffffffffffffffffffffffffffff161415610de7576001915050610dfa565b8080600101915050610d5c565b50600090505b90565b610e05610d54565b151515610e1157600080fd5b600360408051908101604052808381526020013373ffffffffffffffffffffffffffffffffffffffff16815250908060018154018082558091505090600182039060005260206000209060020201600090919290919091506000820151816000019080519060200190610e85929190612528565b5060208201518160010160006101000a81548173ffffffffffffffffffffffffffffffffffffffff021916908373ffffffffffffffffffffffffffffffffffffffff1602179055505050507ff02d0e098230e46e9ca6e77cd37e8cde77c5069e445f3fc8c7f5fc95168ec3748133604051610f01929190612cc8565b60405180910390a150565b600080600090505b600580549050811015610fac57600581815481101515610f3057fe5b906000526020600020906003020160020160009054906101000a900473ffffffffffffffffffffffffffffffffffffffff1673ffffffffffffffffffffffffffffffffffffffff163373ffffffffffffffffffffffffffffffffffffffff161415610f9f576001915050610fb2565b8080600101915050610f14565b50600090505b90565b610fbd610f0c565b151515610fc957600080fd5b600460008154809291906001019190505550600560606040519081016040528060045481526020018381526020013373ffffffffffffffffffffffffffffffffffffffff1681525090806001815401808255809150509060018203906000526020600020906003020160009091929091909150600082015181600001556020820151816001019080519060200190611062929190612528565b5060408201518160020160006101000a81548173ffffffffffffffffffffffffffffffffffffffff021916908373ffffffffffffffffffffffffffffffffffffffff1602179055505050507f383c5f5b4ba5a7ae5e295774badebd1a944483311f52b0a7d62c13b75492f1b060045482336040516110e293929190612d87565b60405180910390a150565b6110f5610f0c565b151561110057600080fd5b60006001830390506111106125a8565b61111982611bef565b90506000816080015190508073ffffffffffffffffffffffffffffffffffffffff166108fc349081150290604051600060405180830381858888f1935050505015801561116a573d6000803e3d6000fd5b506111758385611b3c565b61118a85836040015184602001518785611a16565b600061119533610ac4565b90507f566542327594e73f297348f723fdf387dbfbe486ceb4e16c25a67adb70a5351a81878786604001518688602001516040516111d896959493929190612f1f565b60405180910390a1505050505050565b606060066000838152602001908152602001600020805480602002602001604051908101604052809291908181526020016000905b82821015611370578382906000526020600020906006020160c06040519081016040529081600082015481526020016001820154815260200160028201548152602001600382018054600181600116156101000203166002900480601f0160208091040260200160405190810160405280929190818152602001828054600181600116156101000203166002900480156112f85780601f106112cd576101008083540402835291602001916112f8565b820191906000526020600020905b8154815290600101906020018083116112db57829003601f168201915b50505050508152602001600482015481526020016005820160009054906101000a900473ffffffffffffffffffffffffffffffffffffffff1673ffffffffffffffffffffffffffffffffffffffff1673ffffffffffffffffffffffffffffffffffffffff16815250508152602001906001019061121d565b505050509050919050565b606060018281548110151561138c57fe5b90600052602060002090600502016001018054600181600116156101000203166002900480601f0160208091040260200160405190810160405280929190818152602001828054600181600116156101000203166002900480156114315780601f1061140657610100808354040283529160200191611431565b820191906000526020600020905b81548152906001019060200180831161141457829003601f168201915b50505050509050919050565b606060008090506000600190505b6004548111151561166757606060066000838152602001908152602001600020805480602002602001604051908101604052809291908181526020016000905b828210156115de578382906000526020600020906006020160c06040519081016040529081600082015481526020016001820154815260200160028201548152602001600382018054600181600116156101000203166002900480601f0160208091040260200160405190810160405280929190818152602001828054600181600116156101000203166002900480156115665780601f1061153b57610100808354040283529160200191611566565b820191906000526020600020905b81548152906001019060200180831161154957829003601f168201915b50505050508152602001600482015481526020016005820160009054906101000a900473ffffffffffffffffffffffffffffffffffffffff1673ffffffffffffffffffffffffffffffffffffffff1673ffffffffffffffffffffffffffffffffffffffff16815250508152602001906001019061148b565b50505050905060008090505b8151811015611658573373ffffffffffffffffffffffffffffffffffffffff16828281518110151561161857fe5b9060200190602002015160a0015173ffffffffffffffffffffffffffffffffffffffff16141561164b5783806001019450505b80806001019150506115ea565b5050808060010191505061144b565b506060816040519080825280602002602001820160405280156116a457816020015b6116916125ee565b8152602001906001900390816116895790505b50905060008090506000600190505b6004548111151561190f57606060066000838152602001908152602001600020805480602002602001604051908101604052809291908181526020016000905b82821015611846578382906000526020600020906006020160c06040519081016040529081600082015481526020016001820154815260200160028201548152602001600382018054600181600116156101000203166002900480601f0160208091040260200160405190810160405280929190818152602001828054600181600116156101000203166002900480156117ce5780601f106117a3576101008083540402835291602001916117ce565b820191906000526020600020905b8154815290600101906020018083116117b157829003601f168201915b50505050508152602001600482015481526020016005820160009054906101000a900473ffffffffffffffffffffffffffffffffffffffff1673ffffffffffffffffffffffffffffffffffffffff1673ffffffffffffffffffffffffffffffffffffffff1681525050815260200190600101906116f3565b50505050905060008090505b8151811015611900573373ffffffffffffffffffffffffffffffffffffffff16828281518110151561188057fe5b9060200190602002015160a0015173ffffffffffffffffffffffffffffffffffffffff1614156118f35781818151811015156118b857fe5b9060200190602002015185858151811015156118d057fe5b906020019060200201819052508380600101945050858414156118f257611900565b5b8080600101915050611852565b505080806001019150506116b3565b5081935050505090565b60018181548110151561192857fe5b9060005260206000209060050201600091509050806000015490806001018054600181600116156101000203166002900480601f0160208091040260200160405190810160405280929190818152602001828054600181600116156101000203166002900480156119da5780601f106119af576101008083540402835291602001916119da565b820191906000526020600020905b8154815290600101906020018083116119bd57829003601f168201915b5050505050908060020154908060030154908060040160009054906101000a900473ffffffffffffffffffffffffffffffffffffffff16905085565b6000611a2133610ac4565b90506006600082815260200190815260200160002060c0604051908101604052808881526020018381526020018781526020018681526020018581526020018473ffffffffffffffffffffffffffffffffffffffff16815250908060018154018082558091505090600182039060005260206000209060060201600090919290919091506000820151816000015560208201518160010155604082015181600201556060820151816003019080519060200190611adf929190612528565b506080820151816004015560a08201518160050160006101000a81548173ffffffffffffffffffffffffffffffffffffffff021916908373ffffffffffffffffffffffffffffffffffffffff160217905550505050505050505050565b80600183815481101515611b4c57fe5b90600052602060002090600502016003015403600183815481101515611b6e57fe5b9060005260206000209060050201600301819055505050565b60045481565b6000600182815481101515611b9e57fe5b906000526020600020906005020160040160009054906101000a900473ffffffffffffffffffffffffffffffffffffffff169050919050565b60026020528060005260406000206000915090505481565b611bf76125a8565b600182815481101515611c0657fe5b906000526020600020906005020160a0604051908101604052908160008201548152602001600182018054600181600116156101000203166002900480601f016020809104026020016040519081016040528092919081815260200182805460018160011615610100020316600290048015611cc35780601f10611c9857610100808354040283529160200191611cc3565b820191906000526020600020905b815481529060010190602001808311611ca657829003601f168201915b5050505050815260200160028201548152602001600382015481526020016004820160009054906101000a900473ffffffffffffffffffffffffffffffffffffffff1673ffffffffffffffffffffffffffffffffffffffff1673ffffffffffffffffffffffffffffffffffffffff16815250509050919050565b600660205281600052604060002081815481101515611d5857fe5b906000526020600020906006020160009150915050806000015490806001015490806002015490806003018054600181600116156101000203166002900480601f016020809104026020016040519081016040528092919081815260200182805460018160011615610100020316600290048015611e175780601f10611dec57610100808354040283529160200191611e17565b820191906000526020600020905b815481529060010190602001808311611dfa57829003601f168201915b5050505050908060040154908060050160009054906101000a900473ffffffffffffffffffffffffffffffffffffffff16905086565b606060066000838152602001908152602001600020805480602002602001604051908101604052809291908181526020016000905b82821015611fd5578382906000526020600020906006020160c06040519081016040529081600082015481526020016001820154815260200160028201548152602001600382018054600181600116156101000203166002900480601f016020809104026020016040519081016040528092919081815260200182805460018160011615610100020316600290048015611f5d5780601f10611f3257610100808354040283529160200191611f5d565b820191906000526020600020905b815481529060010190602001808311611f4057829003601f168201915b50505050508152602001600482015481526020016005820160009054906101000a900473ffffffffffffffffffffffffffffffffffffffff1673ffffffffffffffffffffffffffffffffffffffff1673ffffffffffffffffffffffffffffffffffffffff168152505081526020019060010190611e82565b505050509050919050565b600381815481101515611fef57fe5b9060005260206000209060020201600091509050806000018054600181600116156101000203166002900480601f01602080910402602001604051908101604052809291908181526020018280546001816001161561010002031660029004801561209b5780601f106120705761010080835404028352916020019161209b565b820191906000526020600020905b81548152906001019060200180831161207e57829003601f168201915b5050505050908060010160009054906101000a900473ffffffffffffffffffffffffffffffffffffffff16905082565b6120d361263b565b60008090505b60038054905081101561228f576003818154811015156120f557fe5b906000526020600020906002020160010160009054906101000a900473ffffffffffffffffffffffffffffffffffffffff1673ffffffffffffffffffffffffffffffffffffffff163373ffffffffffffffffffffffffffffffffffffffff1614156122825760038181548110151561216957fe5b9060005260206000209060020201604080519081016040529081600082018054600181600116156101000203166002900480601f01602080910402602001604051908101604052809291908181526020018280546001816001161561010002031660029004801561221b5780601f106121f05761010080835404028352916020019161221b565b820191906000526020600020905b8154815290600101906020018083116121fe57829003601f168201915b505050505081526020016001820160009054906101000a900473ffffffffffffffffffffffffffffffffffffffff1673ffffffffffffffffffffffffffffffffffffffff1673ffffffffffffffffffffffffffffffffffffffff16815250509150506123b4565b80806001019150506120d9565b50600360008154811015156122a057fe5b9060005260206000209060020201604080519081016040529081600082018054600181600116156101000203166002900480601f0160208091040260200160405190810160405280929190818152602001828054600181600116156101000203166002900480156123525780601f1061232757610100808354040283529160200191612352565b820191906000526020600020905b81548152906001019060200180831161233557829003601f168201915b505050505081526020016001820160009054906101000a900473ffffffffffffffffffffffffffffffffffffffff1673ffffffffffffffffffffffffffffffffffffffff1673ffffffffffffffffffffffffffffffffffffffff168152505090505b90565b60005481565b8060008190555050565b60006001828154811015156123d857fe5b9060005260206000209060050201600201549050919050565b60058181548110151561240057fe5b9060005260206000209060030201600091509050806000015490806001018054600181600116156101000203166002900480601f0160208091040260200160405190810160405280929190818152602001828054600181600116156101000203166002900480156124b25780601f10612487576101008083540402835291602001916124b2565b820191906000526020600020905b81548152906001019060200180831161249557829003601f168201915b5050505050908060020160009054906101000a900473ffffffffffffffffffffffffffffffffffffffff16905083565b60a06040519081016040528060008152602001606081526020016000815260200160008152602001600073ffffffffffffffffffffffffffffffffffffffff1681525090565b828054600181600116156101000203166002900490600052602060002090601f016020900481019282601f1061256957805160ff1916838001178555612597565b82800160010185558215612597579182015b8281111561259657825182559160200191906001019061257b565b5b5090506125a4919061266b565b5090565b60a06040519081016040528060008152602001606081526020016000815260200160008152602001600073ffffffffffffffffffffffffffffffffffffffff1681525090565b60c0604051908101604052806000815260200160008152602001600081526020016060815260200160008152602001600073ffffffffffffffffffffffffffffffffffffffff1681525090565b604080519081016040528060608152602001600073ffffffffffffffffffffffffffffffffffffffff1681525090565b61268d91905b80821115612689576000816000905550600101612671565b5090565b90565b600061269c823561309a565b905092915050565b60006126b082356130ac565b905092915050565b600082601f83011215156126cb57600080fd5b81356126de6126d982612fb4565b612f87565b915080825260208301602083018583830111156126fa57600080fd5b6127058382846130fe565b50505092915050565b600061271a82356130be565b905092915050565b60006020828403121561273457600080fd5b600061274284828501612690565b91505092915050565b60006020828403121561275d57600080fd5b600082013567ffffffffffffffff81111561277757600080fd5b612783848285016126b8565b91505092915050565b6000806000606084860312156127a157600080fd5b600084013567ffffffffffffffff8111156127bb57600080fd5b6127c7868287016126b8565b93505060206127d88682870161270e565b92505060406127e98682870161270e565b9150509250925092565b60006020828403121561280557600080fd5b60006128138482850161270e565b91505092915050565b6000806040838503121561282f57600080fd5b600061283d8582860161270e565b925050602061284e8582860161270e565b9150509250929050565b600080600080600060a0868803121561287057600080fd5b600061287e8882890161270e565b955050602061288f8882890161270e565b945050604086013567ffffffffffffffff8111156128ac57600080fd5b6128b8888289016126b8565b93505060606128c98882890161270e565b92505060806128da888289016126a4565b9150509295509295909350565b6128f0816130c8565b82525050565b6128ff81613052565b82525050565b61290e81613040565b82525050565b600061291f82612ffa565b8084526020840193508360208202850161293885612fe0565b60005b84811015612971578383038852612953838351612a6b565b925061295e82613026565b915060208801975060018101905061293b565b508196508694505050505092915050565b600061298d82613005565b808452602084019350836020820285016129a685612fed565b60005b848110156129df5783830388526129c1838351612b6a565b92506129cc82613033565b91506020880197506001810190506129a9565b508196508694505050505092915050565b6129f981613064565b82525050565b6000612a0a8261301b565b808452612a1e81602086016020860161310d565b612a2781613140565b602085010191505092915050565b6000612a4082613010565b808452612a5481602086016020860161310d565b612a5d81613140565b602085010191505092915050565b600060c083016000830151612a836000860182612c1d565b506020830151612a966020860182612c1d565b506040830151612aa96040860182612c1d565b5060608301518482036060860152612ac18282612a35565b9150506080830151612ad66080860182612c1d565b5060a0830151612ae960a08601826128f6565b508091505092915050565b600060a083016000830151612b0c6000860182612c1d565b5060208301518482036020860152612b248282612a35565b9150506040830151612b396040860182612c1d565b506060830151612b4c6060860182612c1d565b506080830151612b5f60808601826128f6565b508091505092915050565b600060a083016000830151612b826000860182612c1d565b5060208301518482036020860152612b9a8282612a35565b9150506040830151612baf6040860182612c1d565b506060830151612bc26060860182612c1d565b506080830151612bd560808601826128f6565b508091505092915050565b60006040830160008301518482036000860152612bfd8282612a35565b9150506020830151612c1260208601826128f6565b508091505092915050565b612c2681613090565b82525050565b6000602082019050612c4160008301846128f6565b92915050565b60006020820190508181036000830152612c618184612914565b905092915050565b60006020820190508181036000830152612c838184612982565b905092915050565b6000602082019050612ca060008301846129f0565b92915050565b60006020820190508181036000830152612cc081846129ff565b905092915050565b60006040820190508181036000830152612ce281856129ff565b9050612cf160208301846128f6565b9392505050565b60006040820190508181036000830152612d128185612a35565b9050612d2160208301846128f6565b9392505050565b60006020820190508181036000830152612d428184612af4565b905092915050565b60006020820190508181036000830152612d648184612be0565b905092915050565b6000602082019050612d816000830184612c1d565b92915050565b6000606082019050612d9c6000830186612c1d565b8181036020830152612dae81856129ff565b9050612dbd60408301846128e7565b949350505050565b600060a082019050612dda6000830188612c1d565b8181036020830152612dec81876129ff565b9050612dfb6040830186612c1d565b612e086060830185612c1d565b612e1560808301846128f6565b9695505050505050565b6000606082019050612e346000830186612c1d565b8181036020830152612e468185612a35565b9050612e556040830184612905565b949350505050565b600060a082019050612e726000830188612c1d565b8181036020830152612e848187612a35565b9050612e936040830186612c1d565b612ea06060830185612c1d565b612ead60808301846128f6565b9695505050505050565b600060c082019050612ecc6000830189612c1d565b612ed96020830188612c1d565b612ee66040830187612c1d565b8181036060830152612ef88186612a35565b9050612f076080830185612c1d565b612f1460a08301846128f6565b979650505050505050565b600060c082019050612f346000830189612c1d565b612f416020830188612c1d565b612f4e6040830187612c1d565b612f5b6060830186612c1d565b612f6860808301856128e7565b81810360a0830152612f7a8184612a35565b9050979650505050505050565b6000604051905081810181811067ffffffffffffffff82111715612faa57600080fd5b8060405250919050565b600067ffffffffffffffff821115612fcb57600080fd5b601f19601f8301169050602081019050919050565b6000602082019050919050565b6000602082019050919050565b600081519050919050565b600081519050919050565b600081519050919050565b600081519050919050565b6000602082019050919050565b6000602082019050919050565b600061304b82613070565b9050919050565b600061305d82613070565b9050919050565b60008115159050919050565b600073ffffffffffffffffffffffffffffffffffffffff82169050919050565b6000819050919050565b60006130a582613070565b9050919050565b60006130b782613070565b9050919050565b6000819050919050565b60006130d3826130da565b9050919050565b60006130e5826130ec565b9050919050565b60006130f782613070565b9050919050565b82818337600083830152505050565b60005b8381101561312b578082015181840152602081019050613110565b8381111561313a576000848401525b50505050565b6000601f19601f830116905091905056fea265627a7a72305820fa07a331a474fac1498aa73c2b20d0f6d8350f33d93e3e959cd78b021ffac0d46c6578706572696d656e74616cf50037",
  "source": "// SPDX-License-Identifier: MIT\r\npragma solidity >=0.4.22 <0.9.0;\r\npragma experimental ABIEncoderV2;\r\nimport './Products.sol';\r\nimport './Sellers.sol';\r\nimport './Buyers.sol';\r\n\r\ncontract Ecommerce is Products, Sellers, Buyers{\r\n    function addSeller(string memory _name) public onlyNewSeller {\r\n        sellers.push(Seller(_name, msg.sender));\r\n        emit SellerAdded(_name, msg.sender);\r\n    }\r\n\r\n    function addProduct(string memory _name, uint _price , uint _stock) public onlySeller {\r\n        require(_stock > 0);\r\n        require(_price > 0);\r\n\r\n        productCount++;\r\n        products.push(Product(productCount,_name, _price, _stock,msg.sender));\r\n        SellerProductCount[msg.sender]++;\r\n        emit ProductAdded(productCount, _name, _price, _stock, msg.sender);\r\n    }\r\n\r\n    function buyProduct(uint _pid, uint _qnt ) public payable onlyBuyer{\r\n        uint index = _pid -1;\r\n\r\n        Product memory prod = getProduct(index);\r\n       \r\n        address payable sellerAddress = prod.sellerAddress;\r\n        sellerAddress.transfer(msg.value);\r\n        \r\n        updateStock(index, _qnt);\r\n\r\n        addOrder(_pid,prod.price,prod.name,_qnt,sellerAddress);\r\n        uint buyerid = _getBuyerId(msg.sender);\r\n        emit ProductBought( buyerid, _pid, _qnt, prod.price, sellerAddress , prod.name);\r\n    }\r\n\r\n    // function () public view returns(Seller[] memory){\r\n    //     return sellers;\r\n    // }\r\n\r\n\r\n}",
  "sourcePath": "C:/Users/ankit/Desktop/block/commerce-app/src/contracts/Ecommerce.sol",
  "compiler": {
    "name": "solc",
    "version": "0.5.0+commit.1d4f565a.Emscripten.clang"
  },
  "schemaVersion": "3.0.2",
  "updatedAt": "2022-03-24T20:29:01.589Z",
  "devdoc": {
    "methods": {}
  },
  "userdoc": {
    "methods": {}
  }
}