{
  "contractName": "Products",
  "abi": [
    {
      "constant": true,
      "inputs": [
        {
          "name": "",
          "type": "uint256"
        }
      ],
      "name": "products",
      "outputs": [
        {
          "name": "pid",
          "type": "uint256"
        },
        {
          "name": "name",
          "type": "string"
        },
        {
          "name": "price",
          "type": "uint256"
        },
        {
          "name": "stock",
          "type": "uint256"
        },
        {
          "name": "sellerAddress",
          "type": "address"
        }
      ],
      "payable": false,
      "stateMutability": "view",
      "type": "function",
      "signature": "0x7acc0b20"
    },
    {
      "constant": true,
      "inputs": [
        {
          "name": "",
          "type": "address"
        }
      ],
      "name": "SellerProductCount",
      "outputs": [
        {
          "name": "",
          "type": "uint256"
        }
      ],
      "payable": false,
      "stateMutability": "view",
      "type": "function",
      "signature": "0xabf2ec94"
    },
    {
      "constant": true,
      "inputs": [],
      "name": "productCount",
      "outputs": [
        {
          "name": "",
          "type": "uint256"
        }
      ],
      "payable": false,
      "stateMutability": "view",
      "type": "function",
      "signature": "0xe0f6ef87"
    },
    {
      "constant": false,
      "inputs": [
        {
          "name": "val",
          "type": "uint256"
        }
      ],
      "name": "setProd",
      "outputs": [],
      "payable": false,
      "stateMutability": "nonpayable",
      "type": "function",
      "signature": "0xe104dbf9"
    },
    {
      "constant": true,
      "inputs": [
        {
          "name": "index",
          "type": "uint256"
        }
      ],
      "name": "getProduct",
      "outputs": [
        {
          "components": [
            {
              "name": "pid",
              "type": "uint256"
            },
            {
              "name": "name",
              "type": "string"
            },
            {
              "name": "price",
              "type": "uint256"
            },
            {
              "name": "stock",
              "type": "uint256"
            },
            {
              "name": "sellerAddress",
              "type": "address"
            }
          ],
          "name": "",
          "type": "tuple"
        }
      ],
      "payable": false,
      "stateMutability": "view",
      "type": "function",
      "signature": "0xb9db15b4"
    },
    {
      "constant": false,
      "inputs": [
        {
          "name": "pid",
          "type": "uint256"
        },
        {
          "name": "qnt",
          "type": "uint256"
        }
      ],
      "name": "updateStock",
      "outputs": [],
      "payable": false,
      "stateMutability": "nonpayable",
      "type": "function",
      "signature": "0x9dfc3dd1"
    },
    {
      "constant": true,
      "inputs": [
        {
          "name": "pid",
          "type": "uint256"
        }
      ],
      "name": "getPrice",
      "outputs": [
        {
          "name": "",
          "type": "uint256"
        }
      ],
      "payable": false,
      "stateMutability": "view",
      "type": "function",
      "signature": "0xe7572230"
    },
    {
      "constant": true,
      "inputs": [
        {
          "name": "pid",
          "type": "uint256"
        }
      ],
      "name": "getName",
      "outputs": [
        {
          "name": "",
          "type": "string"
        }
      ],
      "payable": false,
      "stateMutability": "view",
      "type": "function",
      "signature": "0x6b8ff574"
    },
    {
      "constant": true,
      "inputs": [
        {
          "name": "pid",
          "type": "uint256"
        }
      ],
      "name": "getSellerAddress",
      "outputs": [
        {
          "name": "",
          "type": "address"
        }
      ],
      "payable": false,
      "stateMutability": "view",
      "type": "function",
      "signature": "0xa675364d"
    },
    {
      "constant": true,
      "inputs": [],
      "name": "getSellerProducts",
      "outputs": [
        {
          "components": [
            {
              "name": "pid",
              "type": "uint256"
            },
            {
              "name": "name",
              "type": "string"
            },
            {
              "name": "price",
              "type": "uint256"
            },
            {
              "name": "stock",
              "type": "uint256"
            },
            {
              "name": "sellerAddress",
              "type": "address"
            }
          ],
          "name": "",
          "type": "tuple[]"
        }
      ],
      "payable": false,
      "stateMutability": "view",
      "type": "function",
      "signature": "0x01b3490d"
    },
    {
      "constant": true,
      "inputs": [],
      "name": "getAllProducts",
      "outputs": [
        {
          "components": [
            {
              "name": "pid",
              "type": "uint256"
            },
            {
              "name": "name",
              "type": "string"
            },
            {
              "name": "price",
              "type": "uint256"
            },
            {
              "name": "stock",
              "type": "uint256"
            },
            {
              "name": "sellerAddress",
              "type": "address"
            }
          ],
          "name": "",
          "type": "tuple[]"
        }
      ],
      "payable": false,
      "stateMutability": "view",
      "type": "function",
      "signature": "0x02ee3a52"
    }
  ],
  "bytecode": "0x608060405234801561001057600080fd5b50611028806100206000396000f3fe6080604052600436106100af576000357c0100000000000000000000000000000000000000000000000000000000900463ffffffff16806301b3490d146100b457806302ee3a52146100df5780636b8ff5741461010a5780637acc0b20146101475780639dfc3dd114610188578063a675364d146101b1578063abf2ec94146101ee578063b9db15b41461022b578063e0f6ef8714610268578063e104dbf914610293578063e7572230146102bc575b600080fd5b3480156100c057600080fd5b506100c96102f9565b6040516100d69190610e3c565b60405180910390f35b3480156100eb57600080fd5b506100f4610591565b6040516101019190610e3c565b60405180910390f35b34801561011657600080fd5b50610131600480360361012c9190810190610bd8565b610707565b60405161013e9190610e5e565b60405180910390f35b34801561015357600080fd5b5061016e60048036036101699190810190610bd8565b6107c9565b60405161017f959493929190610ebd565b60405180910390f35b34801561019457600080fd5b506101af60048036036101aa9190810190610c01565b6108c6565b005b3480156101bd57600080fd5b506101d860048036036101d39190810190610bd8565b610911565b6040516101e59190610e21565b60405180910390f35b3480156101fa57600080fd5b5061021560048036036102109190810190610baf565b61095b565b6040516102229190610ea2565b60405180910390f35b34801561023757600080fd5b50610252600480360361024d9190810190610bd8565b610973565b60405161025f9190610e80565b60405180910390f35b34801561027457600080fd5b5061027d610ac1565b60405161028a9190610ea2565b60405180910390f35b34801561029f57600080fd5b506102ba60048036036102b59190810190610bd8565b610ac7565b005b3480156102c857600080fd5b506102e360048036036102de9190810190610bd8565b610ad1565b6040516102f09190610ea2565b60405180910390f35b60606000600260003373ffffffffffffffffffffffffffffffffffffffff1673ffffffffffffffffffffffffffffffffffffffff168152602001908152602001600020549050600080905060608260405190808252806020026020018201604052801561038057816020015b61036d610afb565b8152602001906001900390816103655790505b50905060008090505b600180549050811015610587573373ffffffffffffffffffffffffffffffffffffffff166001828154811015156103bc57fe5b906000526020600020906005020160040160009054906101000a900473ffffffffffffffffffffffffffffffffffffffff1673ffffffffffffffffffffffffffffffffffffffff16141561057a5760018181548110151561041957fe5b906000526020600020906005020160a0604051908101604052908160008201548152602001600182018054600181600116156101000203166002900480601f0160208091040260200160405190810160405280929190818152602001828054600181600116156101000203166002900480156104d65780601f106104ab576101008083540402835291602001916104d6565b820191906000526020600020905b8154815290600101906020018083116104b957829003601f168201915b5050505050815260200160028201548152602001600382015481526020016004820160009054906101000a900473ffffffffffffffffffffffffffffffffffffffff1673ffffffffffffffffffffffffffffffffffffffff1673ffffffffffffffffffffffffffffffffffffffff1681525050828481518110151561055757fe5b9060200190602002018190525082806001019350508284141561057957610587565b5b8080600101915050610389565b5080935050505090565b60606001805480602002602001604051908101604052809291908181526020016000905b828210156106fe578382906000526020600020906005020160a0604051908101604052908160008201548152602001600182018054600181600116156101000203166002900480601f01602080910402602001604051908101604052809291908181526020018280546001816001161561010002031660029004801561067c5780601f106106515761010080835404028352916020019161067c565b820191906000526020600020905b81548152906001019060200180831161065f57829003601f168201915b5050505050815260200160028201548152602001600382015481526020016004820160009054906101000a900473ffffffffffffffffffffffffffffffffffffffff1673ffffffffffffffffffffffffffffffffffffffff1673ffffffffffffffffffffffffffffffffffffffff1681525050815260200190600101906105b5565b50505050905090565b606060018281548110151561071857fe5b90600052602060002090600502016001018054600181600116156101000203166002900480601f0160208091040260200160405190810160405280929190818152602001828054600181600116156101000203166002900480156107bd5780601f10610792576101008083540402835291602001916107bd565b820191906000526020600020905b8154815290600101906020018083116107a057829003601f168201915b50505050509050919050565b6001818154811015156107d857fe5b9060005260206000209060050201600091509050806000015490806001018054600181600116156101000203166002900480601f01602080910402602001604051908101604052809291908181526020018280546001816001161561010002031660029004801561088a5780601f1061085f5761010080835404028352916020019161088a565b820191906000526020600020905b81548152906001019060200180831161086d57829003601f168201915b5050505050908060020154908060030154908060040160009054906101000a900473ffffffffffffffffffffffffffffffffffffffff16905085565b806001838154811015156108d657fe5b906000526020600020906005020160030154036001838154811015156108f857fe5b9060005260206000209060050201600301819055505050565b600060018281548110151561092257fe5b906000526020600020906005020160040160009054906101000a900473ffffffffffffffffffffffffffffffffffffffff169050919050565b60026020528060005260406000206000915090505481565b61097b610b41565b60018281548110151561098a57fe5b906000526020600020906005020160a0604051908101604052908160008201548152602001600182018054600181600116156101000203166002900480601f016020809104026020016040519081016040528092919081815260200182805460018160011615610100020316600290048015610a475780601f10610a1c57610100808354040283529160200191610a47565b820191906000526020600020905b815481529060010190602001808311610a2a57829003601f168201915b5050505050815260200160028201548152602001600382015481526020016004820160009054906101000a900473ffffffffffffffffffffffffffffffffffffffff1673ffffffffffffffffffffffffffffffffffffffff1673ffffffffffffffffffffffffffffffffffffffff16815250509050919050565b60005481565b8060008190555050565b6000600182815481101515610ae257fe5b9060005260206000209060050201600201549050919050565b60a06040519081016040528060008152602001606081526020016000815260200160008152602001600073ffffffffffffffffffffffffffffffffffffffff1681525090565b60a06040519081016040528060008152602001606081526020016000815260200160008152602001600073ffffffffffffffffffffffffffffffffffffffff1681525090565b6000610b938235610f8e565b905092915050565b6000610ba78235610fa0565b905092915050565b600060208284031215610bc157600080fd5b6000610bcf84828501610b87565b91505092915050565b600060208284031215610bea57600080fd5b6000610bf884828501610b9b565b91505092915050565b60008060408385031215610c1457600080fd5b6000610c2285828601610b9b565b9250506020610c3385828601610b9b565b9150509250929050565b610c4681610f52565b82525050565b6000610c5782610f24565b80845260208401935083602082028501610c7085610f17565b60005b84811015610ca9578383038852610c8b838351610d9c565b9250610c9682610f45565b9150602088019750600181019050610c73565b508196508694505050505092915050565b6000610cc582610f3a565b808452610cd9816020860160208601610faa565b610ce281610fdd565b602085010191505092915050565b6000610cfb82610f2f565b808452610d0f816020860160208601610faa565b610d1881610fdd565b602085010191505092915050565b600060a083016000830151610d3e6000860182610e12565b5060208301518482036020860152610d568282610cf0565b9150506040830151610d6b6040860182610e12565b506060830151610d7e6060860182610e12565b506080830151610d916080860182610c3d565b508091505092915050565b600060a083016000830151610db46000860182610e12565b5060208301518482036020860152610dcc8282610cf0565b9150506040830151610de16040860182610e12565b506060830151610df46060860182610e12565b506080830151610e076080860182610c3d565b508091505092915050565b610e1b81610f84565b82525050565b6000602082019050610e366000830184610c3d565b92915050565b60006020820190508181036000830152610e568184610c4c565b905092915050565b60006020820190508181036000830152610e788184610cba565b905092915050565b60006020820190508181036000830152610e9a8184610d26565b905092915050565b6000602082019050610eb76000830184610e12565b92915050565b600060a082019050610ed26000830188610e12565b8181036020830152610ee48187610cf0565b9050610ef36040830186610e12565b610f006060830185610e12565b610f0d6080830184610c3d565b9695505050505050565b6000602082019050919050565b600081519050919050565b600081519050919050565b600081519050919050565b6000602082019050919050565b6000610f5d82610f64565b9050919050565b600073ffffffffffffffffffffffffffffffffffffffff82169050919050565b6000819050919050565b6000610f9982610f64565b9050919050565b6000819050919050565b60005b83811015610fc8578082015181840152602081019050610fad565b83811115610fd7576000848401525b50505050565b6000601f19601f830116905091905056fea265627a7a72305820b7708a793d9a1f85174592b5428a198c3a3999880eb72d5366943d5a910aa03e6c6578706572696d656e74616cf50037",
  "source": "// SPDX-License-Identifier: MIT\r\npragma solidity >=0.4.22 <0.9.0;\r\npragma experimental ABIEncoderV2;\r\n\r\ncontract Products{\r\n    uint public productCount;\r\n\r\n    struct Product{\r\n        uint pid;\r\n        string name;\r\n        uint price;\r\n        uint stock;\r\n        address payable sellerAddress;\r\n    }\r\n\r\n    Product[] public products;\r\n\r\n    mapping(address => uint ) public SellerProductCount;\r\n    function setProd(uint val ) public {\r\n        productCount = val;\r\n    }\r\n\r\n    function getProduct(uint index) public view returns(Product memory){\r\n        return products[index];\r\n    }\r\n\r\n    function updateStock(uint pid, uint qnt) public {\r\n        products[pid].stock  = products[pid].stock - qnt;\r\n    }\r\n\r\n    function getPrice(uint pid) public view returns(uint){\r\n        return products[pid].price;\r\n    }\r\n\r\n    function getName(uint pid) public view returns(string memory){\r\n        return products[pid].name;\r\n    }\r\n\r\n    function getSellerAddress(uint pid) public view returns(address payable) {\r\n        return products[pid].sellerAddress;\r\n    }\r\n\r\n    function getSellerProducts() public view returns(Product[] memory){\r\n        uint counter = SellerProductCount[msg.sender];\r\n        uint flag = 0;\r\n        Product[] memory ans = new Product[](counter);\r\n        for(uint i=0;i<products.length;i++){\r\n            if(products[i].sellerAddress == msg.sender){\r\n                ans[flag] = products[i];\r\n                flag++;\r\n                if(counter == flag){\r\n                    break;\r\n                }\r\n            }\r\n        }\r\n        return ans;\r\n    }\r\n\r\n    function getAllProducts() public view returns(Product[] memory){\r\n        return products;\r\n    }\r\n}",
  "sourcePath": "C:\\Users\\ankit\\Desktop\\block\\commerce-app\\src\\contracts\\Products.sol",
  "compiler": {
    "name": "solc",
    "version": "0.5.0+commit.1d4f565a.Emscripten.clang"
  },
  "schemaVersion": "3.0.2",
  "updatedAt": "2022-03-24T20:29:01.583Z",
  "devdoc": {
    "methods": {}
  },
  "userdoc": {
    "methods": {}
  }
}