{
  "contractName": "Sellers",
  "abi": [
    {
      "constant": true,
      "inputs": [
        {
          "name": "",
          "type": "uint256"
        }
      ],
      "name": "sellers",
      "outputs": [
        {
          "name": "name",
          "type": "string"
        },
        {
          "name": "sellerAddress",
          "type": "address"
        }
      ],
      "payable": false,
      "stateMutability": "view",
      "type": "function",
      "signature": "0xcee26ed5"
    },
    {
      "anonymous": false,
      "inputs": [
        {
          "indexed": false,
          "name": "name",
          "type": "string"
        },
        {
          "indexed": false,
          "name": "sellerAddress",
          "type": "address"
        }
      ],
      "name": "SellerAdded",
      "type": "event",
      "signature": "0xf02d0e098230e46e9ca6e77cd37e8cde77c5069e445f3fc8c7f5fc95168ec374"
    },
    {
      "anonymous": false,
      "inputs": [
        {
          "indexed": false,
          "name": "pid",
          "type": "uint256"
        },
        {
          "indexed": false,
          "name": "name",
          "type": "string"
        },
        {
          "indexed": false,
          "name": "price",
          "type": "uint256"
        },
        {
          "indexed": false,
          "name": "stock",
          "type": "uint256"
        },
        {
          "indexed": false,
          "name": "sellerAddress",
          "type": "address"
        }
      ],
      "name": "ProductAdded",
      "type": "event",
      "signature": "0x3d62634187d659619c5db5d026cc9a7da427c566510a5b8cb210293bf9fd530e"
    },
    {
      "constant": true,
      "inputs": [],
      "name": "isOldSeller",
      "outputs": [
        {
          "name": "",
          "type": "bool"
        }
      ],
      "payable": false,
      "stateMutability": "view",
      "type": "function",
      "signature": "0x1cefae5b"
    },
    {
      "constant": true,
      "inputs": [],
      "name": "getSeller",
      "outputs": [
        {
          "components": [
            {
              "name": "name",
              "type": "string"
            },
            {
              "name": "sellerAddress",
              "type": "address"
            }
          ],
          "name": "",
          "type": "tuple"
        }
      ],
      "payable": false,
      "stateMutability": "view",
      "type": "function",
      "signature": "0xdbd0e1b6"
    }
  ],
  "bytecode": "0x608060405234801561001057600080fd5b506107ab806100206000396000f3fe608060405260043610610057576000357c0100000000000000000000000000000000000000000000000000000000900463ffffffff1680631cefae5b1461005c578063cee26ed514610087578063dbd0e1b6146100c5575b600080fd5b34801561006857600080fd5b506100716100f0565b60405161007e919061066d565b60405180910390f35b34801561009357600080fd5b506100ae60048036036100a991908101906105b3565b610199565b6040516100bc929190610688565b60405180910390f35b3480156100d157600080fd5b506100da610284565b6040516100e791906106b8565b60405180910390f35b600080600090505b6000805490508110156101905760008181548110151561011457fe5b906000526020600020906002020160010160009054906101000a900473ffffffffffffffffffffffffffffffffffffffff1673ffffffffffffffffffffffffffffffffffffffff163373ffffffffffffffffffffffffffffffffffffffff161415610183576001915050610196565b80806001019150506100f8565b50600090505b90565b6000818154811015156101a857fe5b9060005260206000209060020201600091509050806000018054600181600116156101000203166002900480601f0160208091040260200160405190810160405280929190818152602001828054600181600116156101000203166002900480156102545780601f1061022957610100808354040283529160200191610254565b820191906000526020600020905b81548152906001019060200180831161023757829003601f168201915b5050505050908060010160009054906101000a900473ffffffffffffffffffffffffffffffffffffffff16905082565b61028c61056f565b60008090505b600080549050811015610448576000818154811015156102ae57fe5b906000526020600020906002020160010160009054906101000a900473ffffffffffffffffffffffffffffffffffffffff1673ffffffffffffffffffffffffffffffffffffffff163373ffffffffffffffffffffffffffffffffffffffff16141561043b5760008181548110151561032257fe5b9060005260206000209060020201604080519081016040529081600082018054600181600116156101000203166002900480601f0160208091040260200160405190810160405280929190818152602001828054600181600116156101000203166002900480156103d45780601f106103a9576101008083540402835291602001916103d4565b820191906000526020600020905b8154815290600101906020018083116103b757829003601f168201915b505050505081526020016001820160009054906101000a900473ffffffffffffffffffffffffffffffffffffffff1673ffffffffffffffffffffffffffffffffffffffff1673ffffffffffffffffffffffffffffffffffffffff168152505091505061056c565b8080600101915050610292565b5060008081548110151561045857fe5b9060005260206000209060020201604080519081016040529081600082018054600181600116156101000203166002900480601f01602080910402602001604051908101604052809291908181526020018280546001816001161561010002031660029004801561050a5780601f106104df5761010080835404028352916020019161050a565b820191906000526020600020905b8154815290600101906020018083116104ed57829003601f168201915b505050505081526020016001820160009054906101000a900473ffffffffffffffffffffffffffffffffffffffff1673ffffffffffffffffffffffffffffffffffffffff1673ffffffffffffffffffffffffffffffffffffffff168152505090505b90565b604080519081016040528060608152602001600073ffffffffffffffffffffffffffffffffffffffff1681525090565b60006105ab8235610723565b905092915050565b6000602082840312156105c557600080fd5b60006105d38482850161059f565b91505092915050565b6105e5816106e5565b82525050565b6105f4816106f7565b82525050565b6000610605826106da565b80845261061981602086016020860161072d565b61062281610760565b602085010191505092915050565b6000604083016000830151848203600086015261064d82826105fa565b915050602083015161066260208601826105dc565b508091505092915050565b600060208201905061068260008301846105eb565b92915050565b600060408201905081810360008301526106a281856105fa565b90506106b160208301846105dc565b9392505050565b600060208201905081810360008301526106d28184610630565b905092915050565b600081519050919050565b60006106f082610703565b9050919050565b60008115159050919050565b600073ffffffffffffffffffffffffffffffffffffffff82169050919050565b6000819050919050565b60005b8381101561074b578082015181840152602081019050610730565b8381111561075a576000848401525b50505050565b6000601f19601f830116905091905056fea265627a7a72305820fbadfa6b4b4c78954a2a9ba20ccb0f13bb4a855595b7896a94751a00d93c1e1c6c6578706572696d656e74616cf50037",
  "source": "// SPDX-License-Identifier: MIT\r\npragma solidity >=0.4.22 <0.9.0;\r\npragma experimental ABIEncoderV2;\r\n\r\ncontract Sellers{\r\n\r\n    struct Seller{\r\n        string name;\r\n        address payable sellerAddress;\r\n    }\r\n\r\n    Seller[] public sellers;\r\n\r\n    event SellerAdded(\r\n        string name,\r\n        address payable sellerAddress\r\n    );\r\n\r\n    event ProductAdded(\r\n        uint pid,\r\n        string name,\r\n        uint price,\r\n        uint stock,\r\n        address payable sellerAddress\r\n    );\r\n\r\n    function isOldSeller() public view returns(bool){\r\n        for(uint i = 0; i<sellers.length ; i++){\r\n            if(msg.sender == sellers[i].sellerAddress)  return true;\r\n        }\r\n        return false;\r\n    }\r\n\r\n    modifier onlyNewSeller() {\r\n        require(!isOldSeller());\r\n        _;\r\n    }\r\n\r\n    modifier onlySeller() {\r\n        require(isOldSeller());\r\n        _;\r\n    }\r\n\r\n    function getSeller() public view returns(Seller memory){\r\n        for(uint i = 0; i<sellers.length ; i++){\r\n            if(msg.sender == sellers[i].sellerAddress)  return sellers[i];\r\n        }\r\n        return sellers[0];\r\n    }\r\n\r\n}",
  "sourcePath": "C:\\Users\\ankit\\Desktop\\block\\commerce-app\\src\\contracts\\Sellers.sol",
  "compiler": {
    "name": "solc",
    "version": "0.5.0+commit.1d4f565a.Emscripten.clang"
  },
  "schemaVersion": "3.0.2",
  "updatedAt": "2022-03-24T20:29:01.573Z",
  "devdoc": {
    "methods": {}
  },
  "userdoc": {
    "methods": {}
  }
}